:100000000C9447000C946F000C946F000C946F00DC
:100010000C949D000C946F000C946F000C946F0076
:100020000C946F000C946F000C946F000C94A3045C
:100030000C946F000C946F000C946F000C946F0084
:100040000C946F000C946F000C946F000C946F0074
:10005000030403030400000001000000000000008E
:1000600001020440088001020408102040800202BE
:10007000020202010101010101010102000022004E
:10008000250000002100240001028C040A02112432
:100090001FBECFEFD2E0DEBFCDBF11E0A0E0B1E0E8
:1000A000E6E3FFE002C005900D92A231B107D9F757
:1000B00021E0A2E1B1E001C01D92AB3FB207E1F740
:1000C00010E0CCE8D0E004C02297FE010E945C065C
:1000D000C838D107C9F70E941A060C948E070C94F1
:1000E0000000A82FB92F80E090E041E050EA609531
:1000F00030E009C02D9182279795879510F08427CD
:100100009527305EC8F36F5FA8F30895EADF8D93FB
:100110009D930895A6E088279927AA9569F00197ED
:10012000E1F31B99FCCF1B9BFECF81E09927A3B184
:10013000019611F0A874D9F70895CF93CFB7CF9354
:10014000DF93C3951B9BE9F71B9B10C01B9B0EC045
:100150001B9B0CC01B9B0AC01B9B08C01B9B06C0A3
:10016000C091DA01C395C093DA018BC06F93C0913F
:10017000D901DD27CF51DE4F2F9365E51B9B03C0CF
:100180002F916F91E1CF0F931F934F9320E040E1A8
:100190005F9303B1087403FB27F93F9350E03BE002
:1001A00039C0187440642F77012F5F5F1EC040680C
:1001B00013B118742F7752501FC0406403B12F77CA
:1001C0000874D1F15F5F00C023C0406213B12F7784
:1001D000187491F15F5F00C025C00874102751505A
:1001E00012F45D5F0000115027952C3F13B1C8F643
:1001F00018740127015027952C3FC8F642274993D0
:1002000003B1087410274F73115027952C3FA8F69F
:100210004695469513B1187479F00127015027953A
:100220002C3F98F66B5A60F3315003B1B0F600C022
:1002300012E01BBB002719C03B503195C31BD040B7
:1002400012E01BBB0881033C09F10B34F9F020914B
:10025000D7011981110F1213EDCF4A81441F0936BE
:1002600051F10D3211F0013E29F70093DF013F916A
:100270005F914F911F910F912F916F91CBB3C1FD62
:1002800060CFDF91CF91CFBFCF9118952091DF0143
:10029000222369F31091DD01112391F5343092F19D
:1002A0003093DD012093D8011091D9013BE0311B3F
:1002B0003093D90127C00091DD0101300CF50AE52A
:1002C0004F7049F43091080134FD1DC000930801BE
:1002D000C0ECD1E01CC03091CB0134FD14C00093C0
:1002E000CB01CCECD1E013C0052710E000C000002A
:1002F00005B91AC0052710E0221F1DC010E021C05B
:100300004AE502C032ED432FC4E1D0E032E014B13F
:1003100018642B9A05B114B958E420E865E320FF6E
:10032000052705B9279517951C3FF0F66695B8F790
:10033000B1F720FF052705B9279517951C3FD0F683
:100340002795179517FF052700001C3F05B9B0F644
:1003500029913A9519F7077B1091DE01110FC651CB
:10036000D04005B911F01093D70112E01BBB086013
:1003700014B1177B402F477B54E05A95F1F705B92C
:1003800014B945B974CF82E191E00E94220287E25C
:1003900091E00C947B0442E362E382E30E9439041F
:1003A0009B01AC0160E070E082E191E00E94BE033D
:1003B00082E191E00E94A202609106017091070122
:1003C000882777FD8095982F0E94100540E060E017
:1003D00082E30E9439049B01AC0160E070E082E19D
:1003E00091E00E94BE0382E191E00E94A20260912E
:1003F000060170910701882777FD8095982F0C944E
:10040000100526E030E04AE061E070E082E191E032
:100410000C94960382E191E00C940E02CF93DF934B
:10042000EC0188859985009711F00E94F8068E816D
:1004300087FD05C060E0DF91CF910C948105DF91CD
:10044000CF910895CF93DF93EC018E8187FD07C094
:1004500061E00E94810560E08E810E94BA0581E022
:100460008983DF91CF910895EF92FF920F931F93AD
:10047000CF93DF93EC017B0188859985009711F07C
:100480000E94F8069D858A85981303C083E090E05A
:1004900002C084E090E0B7010E9421068C019D8398
:1004A0008C830E94600699878887009741F0A80195
:1004B00060E070E00E948707FB82EA8204C01D8230
:1004C0001C821B821A82DF91CF911F910F91FF90A6
:1004D000EF900895FC0121E095858285981320E036
:1004E000CB0136E0969587953A95E1F7482F437012
:1004F0004587CB0154E0969587955A95E1F7382FBB
:1005000033703287CB019695879596958795837042
:100510008387862F8370848781E06F3F710511F098
:1005200008F080E0808380859185892B51F091E0EF
:10053000431390E0921729F062817381CF010C94EC
:1005400034020895CF92DF92EF92FF920F931F93A0
:10055000CF93DF93CDB7DEB729970FB6F894DEBF00
:100560000FBECDBF8C01DC0118968D919C9119971F
:10057000892B09F49AC00E94ED04F801C684D7843F
:10058000E088F1886C197D098E099F096233710535
:100590008105910580F3F894848195819A838983FC
:1005A000A085B1857D01EFEFEE1AFE0A8C91898757
:1005B000D8019C9152960D90BC91A02DF801848990
:1005C000992309F42EC09C91982B98879C91809533
:1005D00089238F838F818E8388E08D8358856F81F7
:1005E00049853D812E8189819A81F7015C9347FD80
:1005F000252F3A952C93262F39F0441F00C0000078
:100600006C93000000C0F2CF38E041916C93000081
:10061000019761F7F801B38BA28B49873D832E8345
:1006200038C09C91982B98879C91809589238F83C3
:100630008F818C8388E08B8358856F8149853B81CE
:100640002C8189819A81F7015C9347FD252F00C099
:1006500000C02C9300C000C000C000C000C06C935C
:100660000000262F3A9541F0441F000000C000C052
:1006700000C000C000C0E8CF38E0419100C06C93DA
:1006800000C0019709F7F801B38BA28B49873B8320
:100690002C839A83898378940E94ED04D8011E9656
:1006A0006D937D938D939C93519729960FB6F894F3
:1006B000DEBF0FBECDBFDF91CF911F910F91FF9095
:1006C000EF90DF90CF9008951F93CF93DF93EC01CD
:1006D000162F8981882331F08E8187FD03C060E069
:1006E0000E9481051E838981882341F061E0812F6A
:1006F0000E94810560E0812F0E94BA05812F90E061
:10070000FC01E259FF4FE491F0E0EE0FFF1FE458C7
:10071000FF4F259134913B8B2A8BFC01E05AFF4F10
:1007200084918C8BDF91CF911F910895EF92FF926E
:100730000F931F93CF93DF931F92CDB7DEB77C014A
:100740008B01FC011182178211861086168617868E
:10075000108A118AB90149830E946A02B801C7014F
:100760000E9434024981642FC7010F90DF91CF911D
:100770001F910F91FF90EF900C9464036F927F9202
:100780009F92AF92BF92CF92DF92EF92FF920F9320
:100790001F93CF93DF93FC013B0189019A01828172
:1007A00093816817790708F056C0C901AA27BB27AB
:1007B000A82EC12ED22EE32EFF24BC2C902E4781D2
:1007C000442399F0C42FD0E090E0BE010E9421069E
:1007D000A92E8C2D90E0BE010E942106B92E802FFB
:1007E00090E0BE010E942106992E55858285C08524
:1007F000D185581309C0C30163E070E00E9421064F
:100800007E01E80EF91E18C07301EE0CFF1CEE0C01
:10081000FF1CEC0EFD1E832F9927AA27BB27E7019B
:10082000C50FD11D442331F0642F70E090E00E9489
:10083000210601C0982F98838285D701A80FB11D8A
:10084000AC928385D701A80FB11DBC928485F701B6
:10085000E80FF11D9082DF91CF911F910F91FF90D2
:10086000EF90DF90CF90BF90AF909F907F906F9070
:100870000895962F50E060E070E0592B682BCB0173
:10088000BA010895ECE6F0E0808180648083E8E6B8
:10089000F0E08081826080838BE48093CC018AE5E4
:1008A0008093CB0108951F93CF93DF93162FFC0104
:1008B00026813781F901E05CFF4FC081D181CE01F3
:1008C000019660E470E00E944606D901AE5BBF4F1E
:1008D0004D915C918417950741F0C20FD31F188387
:1008E0009183808381E090E002C080E090E0DF911E
:1008F000CF911F910895F8940E944204239A80E0BA
:10090000815039F0EFE3FCE93197F1F700C00000C6
:10091000F7CF23987894089510922A011092290114
:100920008DE091E0909328018093270183E791E087
:1009300090932C0180932B018FE291E090932E01F4
:1009400080932D0108951F920F920FB60F921124DC
:100950002F933F938F939F93AF93BF938091B80151
:100960009091B901A091BA01B091BB013091B7014A
:1009700023E0230F2D3730F026E8230F0296A11D28
:10098000B11D03C00196A11DB11D2093B701809335
:10099000B8019093B901A093BA01B093BB018091C3
:1009A000BC019091BD01A091BE01B091BF01019623
:1009B000A11DB11D8093BC019093BD01A093BE0108
:1009C000B093BF01BF91AF919F918F913F912F91B4
:1009D0000F900FBE0F901F9018953FB7F89480911D
:1009E000BC019091BD01A091BE01B091BF0127B59E
:1009F000A89B05C02F3F19F00196A11DB11D3FBF57
:100A00006627782F892F9A2F620F711D811D911DE6
:100A100042E0660F771F881F991F4A95D1F7089506
:100A2000CF92DF92EF92FF92CF93DF936B017C0125
:100A30000E94ED04EB01C114D104E104F10479F04A
:100A40000E94ED046C1B7D0B683E7340A0F381E0B7
:100A5000C81AD108E108F108C851DC4FECCFDF918A
:100A6000CF91FF90EF90DF90CF90089516BC15BC0A
:100A700017BC18BCEEE6F0E080818C7F808385B3E4
:100A8000836085BB85B5826085BD85B5816085BD88
:100A900086B5887F846086BD7894808181608083FC
:100AA000EAE7F0E0808187688083808180688083C6
:100AB0000895813039F485B58F7785BD85B58F7BF5
:100AC00085BD0895833059F4809180008F7780939D
:100AD0008000809180008F7B809380000895843017
:100AE00079F4809180008F7D8093800080918000D8
:100AF0008F7E80938000809183008F7D8093830020
:100B00000895CF93DF9390E0FC01E05AFF4F2491CA
:100B1000FC01E259FF4F8491882349F190E0880F4E
:100B2000991FFC01EE57FF4FA591B49184589F4F38
:100B3000FC01C591D4919FB7611108C0F8948C91C4
:100B4000209582238C93888182230AC0623051F4DD
:100B5000F8948C91322F309583238C938881822B4B
:100B6000888304C0F8948C91822B8C939FBFDF9173
:100B7000CF9108950F931F93CF93DF931F92CDB71B
:100B8000DEB7282F30E0F901E05BFF4F8491F901D7
:100B9000E05AFF4F1491F901E259FF4F04910023ED
:100BA000D9F0882321F069830E9459056981E02FDB
:100BB000F0E0EE0FFF1FE458FF4FA591B4919FB7EF
:100BC000611105C0F8948C911095812303C0F894AD
:100BD0008C91812B8C939FBF0F90DF91CF911F91B0
:100BE0000F910895CF92DF92EF92FF920F931F9390
:100BF000CF93DF936C017A01EB01E60EF71E00E064
:100C000010E0CE15DF0561F06991D601ED91FC9100
:100C10000190F081E02DC6010995080F191FF1CF51
:100C2000C801DF91CF911F910F91FF90EF90DF905E
:100C3000CF9008950E9436050E94C3010E94CB0107
:100C4000FDCF0024552704C0080E591F880F991F97
:100C5000009729F076956795B8F37105B9F7802D5F
:100C6000952F0895AA1BBB1B51E107C0AA1FBB1FEC
:100C7000A617B70710F0A61BB70B881F991F5A9528
:100C8000A9F780959095BC01CD01089597FB072E9B
:100C900016F4009407D077FD09D00E94320607FCB5
:100CA00005D03EF4909581959F4F0895709561957C
:100CB0007F4F0895EE0FFF1F0590F491E02D0994EA
:100CC000CF93DF938230910510F482E090E0E091C1
:100CD000F901F091FA0120E030E0A0E0B0E03097B7
:100CE00039F14081518148175907B8F04817590721
:100CF00071F482819381109729F013969C938E93BF
:100D000012972CC09093FA018093F90127C0211506
:100D1000310531F04217530718F0A901DB0101C07A
:100D2000EF019A01BD01DF010280F381E02DD7CFF1
:100D300021153105F9F0281B390B2430310580F4D9
:100D40008A819B816115710521F0FB019383828368
:100D500004C09093FA018093F901FE01329644C0D9
:100D6000FE01E20FF31F81939193225031093983E1
:100D700028833AC02091F7013091F801232B41F4E8
:100D800020910201309103013093F8012093F70183
:100D900020910001309101012115310541F42DB759
:100DA0003EB74091040150910501241B350BE091A1
:100DB000F701F091F801E217F307A0F42E1B3F0BA7
:100DC0002817390778F0AC014E5F5F4F24173507BD
:100DD00048F04E0F5F1F5093F8014093F701819345
:100DE000919302C0E0E0F0E0CF01DF91CF91089550
:100DF000CF93DF93009709F487C0FC0132971382E9
:100E00001282C091F901D091FA01209781F42081DA
:100E10003181280F391F8091F7019091F8018217D5
:100E2000930779F5F093F801E093F7016DC0DE01C7
:100E300020E030E0AE17BF0750F412964D915C9160
:100E400013979D014115510509F1DA01F3CFB383E1
:100E5000A28340815181840F951F8A179B0771F4EB
:100E60008D919C911197840F951F02969183808399
:100E700012968D919C91139793838283211531054E
:100E800029F4F093FA01E093F9013EC0D9011396D9
:100E9000FC93EE9312974D915D91A40FB51FEA1745
:100EA000FB0779F480819181840F951F0296D90107
:100EB00011969C938E938281938113969C938E932B
:100EC0001297E0E0F0E08A819B81009719F0FE0123
:100ED000EC01F9CFCE01029628813981820F931F50
:100EE0002091F7013091F8012817390769F43097FC
:100EF00029F41092FA011092F90102C013821282B1
:100F0000D093F801C093F701DF91CF910895DC01F0
:100F100001C06D9341505040E0F7089510E0CCE8D7
:100F2000D0E004C0FE010E945C062296CE38D107B4
:060F3000C9F7F894FFCFA1
:100F36000000FB018000F4015A000000005304F297
:020F46000500A4
:00000001FF
